:030000000208BD36
:0C08BD00787FE4F6D8FD75810702080082
:0408A5007F147E003E
:1008A900EF4E600F7D027CEFDCFEDDFCEF1F70F088
:0308B9001E80EDB1
:0108BC002219
:1008000020B10D1208A530B1FD1208A5B2A080F0EC
:1008100020B00D1208A530B1FD1208A5B2A180E0EC
:1008200020B20D1208A530B2FD1208A5B2A280D0E8
:1008300020B3101208A530B3FD1208A5A2B3B392DD
:10084000A380BD20B11420B0111208A520B103303F
:10085000B0FA1208A5B2A402080020B01420B21108
:100860001208A520B00330B2FA1208A5B2A50208FA
:100870000020B21420B3111208A520B00330B2FA40
:100880001208A5B2A602080030B10302080030B376
:10089000030208001208A520B00330B2FA1208A51E
:0508A000B2A7020800F0
:00000001FF
