:03000000020800F3
:0C080000787FE4F6D8FD758112020847ED
:0D095E000B083F065B4F666D7D07077F6F3E
:090940007C0012088C7F017E008E
:10094900EF1FAC0670011E4C600A7D027CEFDCFED5
:04095900DDFC80EC55
:01095D002277
:10088C00EF14B4080050549008A175F003A4C5836C
:10089C0025F0C583730208B90208BD0208C102081D
:1008AC00C50208C90208D10208D90208E1D2A48005
:1008BC000ED2A48012D2A48016D2A4801AC2A4D2C2
:1008CC00A3D2A28016C2A4D2A3C2A2800EC2A4C27A
:1008DC00A3D2A28006C2A4C2A3C2A274082DF8E6B9
:0308EC00F5802272
:1008EF007D017C007F0112088C7E001209497D0278
:1008FF007C007F0212088C1F7E001209497D037F46
:10090F00031209407D047F041209407D057C007F9E
:10091F00051209427D067C007F061209427D077C85
:10092F00007F071209427D097C007F08120942806F
:01093F00AF08
:10080C000208EFE493A3F8E493A34003F68001F20B
:10081C0008DFF48029E493A3F85407240CC8C333ED
:10082C00C4540F4420C8834004F456800146F6DFBC
:10083C00E4800B010204081020408090095EE47EE5
:10084C00019360BCA3FF543F30E509541FFEE493B1
:10085C00A360010ECF54C025E060A840B8E493A378
:10086C00FAE493A3F8E493A3C8C582C8CAC583CAA3
:10087C00F0A3C8C582C8CAC583CADFE9DEE780BE5B
:01096B00008B
:00000001FF
