:03000000020800F3
:0C080000787FE4F6D8FD758112020847ED
:10088C007D017C007F0112090F7F017E001209722D
:10089C007D027C007F0212090F7F017E001209721B
:1008AC007D037C007F0312090F7F017E0012097209
:1008BC007D047C007F0412090F7F017E00120972F7
:1008CC007D057C007F0512090F7F017E00120972E5
:1008DC007D067C007F0612090F7F017E00120972D3
:1008EC007D077C007F0712090F7F017E00120972C1
:1008FC007D097C007F0812090F7F017E00120972AE
:03090C0002088C52
:10097200EF1FAC0670011E4C600A7D027CEFDCFEAC
:04098200DDFC80EC2C
:01098600224E
:0D0987000B083F065B4F666D7D07077F6F15
:10090F00EF14B40800505490092475F003A4C58364
:10091F0025F0C5837302093C02094002094402090C
:10092F004802094C02095402095C020964D2A480EE
:10093F000ED2A48012D2A48016D2A4801AC2A4D23E
:10094F00A3D2A28016C2A4D2A3C2A2800EC2A4C2F6
:10095F00A3D2A28006C2A4C2A3C2A274082DF8E635
:03096F00F58022EE
:10080C0002088CE493A3F8E493A34003F68001F26E
:10081C0008DFF48029E493A3F85407240CC8C333ED
:10082C00C4540F4420C8834004F456800146F6DFBC
:10083C00E4800B0102040810204080900987E47EBC
:10084C00019360BCA3FF543F30E509541FFEE493B1
:10085C00A360010ECF54C025E060A840B8E493A378
:10086C00FAE493A3F8E493A3C8C582C8CAC583CAA3
:10087C00F0A3C8C582C8CAC583CADFE9DEE780BE5B
:010994000062
:00000001FF
