:03000000020800F3
:0C080000787FE4F6D8FD758112020847ED
:0D0933000B083F065B4F666D7D07077F6F69
:10091E00EF1FAC0670011E4C600A7D027CEFDCFE00
:04092E00DDFC80EC80
:0109320022A2
:10088C00EF14B4080050549008A175F003A4C5836C
:10089C0025F0C583730208B90208BD0208C102081D
:1008AC00C50208C90208D10208D90208E1D2A48005
:1008BC000ED2A48012D2A48016D2A4801AC2A4D2C2
:1008CC00A3D2A28016C2A4D2A3C2A2800EC2A4C27A
:1008DC00A3D2A28006C2A4C2A3C2A274082DF8E6B9
:0308EC00F5802272
:1008EF007D017C007F0112088C7E0012091E7D02A3
:1008FF007C007F0212088C1F7E0012091E7D037C74
:0F090F00007F0312088C7F017E0012091E80D129
:10080C000208EFE493A3F8E493A34003F68001F20B
:10081C0008DFF48029E493A3F85407240CC8C333ED
:10082C00C4540F4420C8834004F456800146F6DFBC
:10083C00E4800B0102040810204080900933E47E10
:10084C00019360BCA3FF543F30E509541FFEE493B1
:10085C00A360010ECF54C025E060A840B8E493A378
:10086C00FAE493A3F8E493A3C8C582C8CAC583CAA3
:10087C00F0A3C8C582C8CAC583CADFE9DEE780BE5B
:0109400000B6
:00000001FF
