:03000000020A45AC
:0C0A4500787FE4F6D8FD75812602097266
:10097200E4F508F509120A220509E50970020508DD
:100982007FE87E03120A0D750E09AB09AA087D01E4
:070992007F011209DA80E188
:060A3600C2A58F80D2A7CB
:080A3C007F027EEFDEFEDFFC0D
:010A4400228F
:0A0A5100C2A6120A36C2A7020A3C30
:1009BC00CFCDCFCECCCE12083F7C007D0A12083FA3
:0409CC00ED2430FFE7
:0A09D000D2A6120A36C2A7020A3CA2
:1009F700AE07BE0104ED148006BE0209ED243F4494
:060A070080FF120A5122DB
:100A22007F38120A517F0C120A517F06120A517F37
:040A320001020A5162
:0A0A5B00AC031209F7AF040209D042
:060999008B248A2589264B
:10099F001209F7E4FDAB24AA25A9268D82758300E1
:0C09AF00120800FF60061209D00D80E95C
:0109BB002219
:0C093F007F0AEA24FFFDE434FFFC7E0088
:08094B008E0F8F108C118D122C
:100953007F017E00E4FBEBC39512E5116480F8741C
:0E0963008098500AAC0FAD1012082D0B80E8E2
:010971002263
:0409DA008A0C8B0DEB
:1009DE001209F7AA0EEAD39400400D12093FAC0C8F
:0809EE00AD0D1209BC1A80EDE9
:0109F60022DE
:100894001209F7C3EA64809480400B7F2B1209D0BD
:1008A4008A188B19800E7F2D1209D0C3E49BF51989
:1008B400E49AF518AA17EAD39400400D12093FAC44
:0908C40018AD191209BC1A80EDEF
:0108CD002208
:0408CE008A1C8B1DD8
:1008D2001209F7AA1EEAD3940040297F1012094197
:1008E200AC1CAD1DCFCDCFCECCCE12083FEF540FF6
:1008F200FEC3940AEE5004243080022437FF12090A
:04090200D01A80D1B6
:0109060022CE
:040907008A218B2294
:10090B001209F7AA23EAD394004028EA24FFFDE456
:10091B0034FFFC7F027E0012094BAC21AD22CFCD00
:10092B00CFCECCCE12083FEF54012430FF1209D0AA
:03093B001A80D24D
:01093E002296
:100A0D00EF1FAC0670011E4C600A7D027CEFDCFE10
:040A1D00DDFC80EC90
:010A210022B2
:10080000BB010CE58229F582E5833AF583E02250AD
:1008100006E92582F8E622BBFE06E92582F8E222F7
:0D082000E58229F582E5833AF583E4932211
:10082D00EF8DF0A4A8F0CF8CF0A428CE8DF0A42EDF
:02083D00FE2299
:10083F00BC000BBE0029EF8DF084FFADF022E4CC9D
:10084F00F875F008EF2FFFEE33FEEC33FCEE9DEC66
:10085F00984005FCEE9DFE0FD5F0E9E4CEFD22EDAC
:10086F00F8F5F0EE8420D21CFEADF075F008EF2FF6
:10087F00FFED33FD4007985006D5F0F222C398FDE7
:05088F000FD5F0EA2284
:00000001FF
